:020000040800F2
:1000000000400220A93D0008E5310008FD3100084C
:1000100000000000000000000000000000000000E0
:10002000000000000000000000000000854C0008F7
:100030000000000000000000114D0008EB31000836
:10004000393E0008393E0008393E0008393E0008B4
:10005000393E0008393E0008393E0008393E0008A4
:10006000393E0008393E0008393E0008A93500082D
:10007000393E0008393E0008393E00089135000835
:10008000393E0008393E0008393E0008393E000874
:10009000393E0008393E0008393E0008393E000864
:1000A000393E0008C1350008393E00083D320008DD
:0C00B0006D3200089D320008393E000847
:1000C00010B5064C2378002B07D1054B002B02D02E
:1000D000044800E000BF0123237010BD280A00205F
:1000E0000000000064FF0008044B10B5002B03D093
:1000F0000349044800E000BF10BDC04600000000F6
:100100002C0A002064FF00080023C25C0133002A8F
:10011000FBD1581E7047000002B4714649084900DF
:10012000095C49008E4402BC7047C04603B4714666
:10013000490840004900095A49008E4403BC7047F1
:10014000002243088B4274D303098B425FD3030A16
:100150008B4244D3030B8B4228D3030C8B420DD329
:10016000FF22090212BA030C8B4202D312120902B7
:1001700065D0030B8B4219D300E0090AC30B8B42F5
:1001800001D3CB03C01A5241830B8B4201D38B03A3
:10019000C01A5241430B8B4201D34B03C01A524148
:1001A000030B8B4201D30B03C01A5241C30A8B428B
:1001B00001D3CB02C01A5241830A8B4201D38B0276
:1001C000C01A5241430A8B4201D34B02C01A52411A
:1001D000030A8B4201D30B02C01A5241CDD2C3098C
:1001E0008B4201D3CB01C01A524183098B4201D308
:1001F0008B01C01A524143098B4201D34B01C01AF3
:10020000524103098B4201D30B01C01A5241C3086A
:100210008B4201D3CB00C01A524183088B4201D3D9
:100220008B00C01A524143088B4201D34B00C01AC5
:100230005241411A00D20146524110467047FFE731
:1002400001B5002000F0F0F802BDC0460029F7D04B
:1002500076E7704703460B437FD4002243088B4266
:1002600074D303098B425FD3030A8B4244D3030B3D
:100270008B4228D3030C8B420DD3FF22090212BA02
:10028000030C8B4202D31212090265D0030B8B427E
:1002900019D300E0090AC30B8B4201D3CB03C01A68
:1002A0005241830B8B4201D38B03C01A5241430B43
:1002B0008B4201D34B03C01A5241030B8B4201D333
:1002C0000B03C01A5241C30A8B4201D3CB02C01A9E
:1002D0005241830A8B4201D38B02C01A5241430A16
:1002E0008B4201D34B02C01A5241030A8B4201D305
:1002F0000B02C01A5241CDD2C3098B4201D3CB01AC
:10030000C01A524183098B4201D38B01C01A52415A
:1003100043098B4201D34B01C01A524103098B425E
:1003200001D30B01C01A5241C3088B4201D3CB0049
:10033000C01A524183088B4201D38B00C01A52412C
:1003400043088B4201D34B00C01A5241411A00D2DC
:1003500001465241104670475DE0CA0F00D0494245
:10036000031000D34042534000229C4603098B42B5
:100370002DD3030A8B4212D3FC22890112BA030A3D
:100380008B420CD3890192118B4208D389019211BF
:100390008B4204D389013AD0921100E08909C30944
:1003A0008B4201D3CB01C01A524183098B4201D346
:1003B0008B01C01A524143098B4201D34B01C01A31
:1003C000524103098B4201D30B01C01A5241C308A9
:1003D0008B4201D3CB00C01A524183088B4201D318
:1003E0008B00C01A5241D9D243088B4201D34B0033
:1003F000C01A5241411A00D20146634652415B1075
:10040000104601D34042002B00D549427047634655
:100410005B1000D3404201B5002000F005F802BD9A
:100420000029F8D016E770477047C0468446100090
:1004300062468C461900634600E0C0461FB500F0D6
:10044000F9FF002801D40021C8421FBD10B500F0FB
:1004500049FF4042013010BD10B500F0EBFF00280D
:1004600001DB002010BD012010BDC04610B500F01A
:10047000E1FF002801DD002010BD012010BDC046B5
:1004800010B500F071FF002801DC002010BD012034
:1004900010BDC04610B500F067FF002801DA00204B
:1004A00010BD012010BDC046002B11D1002A0FD174
:1004B000002900D1002802D00021C943080007B458
:1004C000024802A14018029003BDC0465DFFFFFF35
:1004D00003B4684601B5029800F006F8019B9E46F9
:1004E00002B00CBC7047C046F0B557464E46454674
:1004F000DE46E0B504000D009246994683B08B427B
:1005000030D82DD04946504601F0BEFE29000600E5
:10051000200001F0B9FE331A9846203B9B4633D4A5
:100520005A465346934042461F00534693401E008E
:10053000AF423AD8AF4200D178E05B46A41BBD4140
:10054000002B00DA75E000220023009201930123C2
:100550005A4693400193012342469340009328E07A
:100560008242CFD900220023009201930C9B002BE2
:1005700001D01C605D600098019903B0F0BCBB46DF
:10058000B246A946A046F0BD424620239B1A5246D9
:10059000DA40414613004A468A40170042461F434C
:1005A000534693401E00AF42C4D90022002300925C
:1005B00001934346002BD9D0FB0772081A434646E5
:1005C0007B080EE0AB4201D1A2420CD8A41A9D4197
:1005D000012024196D410021013E24184D41002EB7
:1005E00006D0AB42EED9013E24196D41002EF8D160
:1005F000009801995B4600196941002B24DB2B0010
:100600005A464446D3402A00E2401C005B4615008F
:10061000002B2ADB26009E40330026004746BE40C2
:100620003200801A9941009001919FE7A342BCD803
:1006300083E74246202300219B1A00220091019269
:100640000122DA40019286E7424620239B1A2A00C3
:1006500046469A402300F340444613432A00E240B2
:100660001C005B461500002BD4DA42462F002023E5
:10067000260097409B1ADE403B003343CDE7C0463F
:10068000F0B54F464646D6460D000400C0B51F00E3
:1006900011002803620F400A10437A00520DE30054
:1006A0003C039146640AFA0F4F0F6E0027439246AF
:1006B000B846760DED0FC900954200D199E04C4641
:1006C000341BA446002C00DC7CE04A46002A00D102
:1006D000B8E0C54A964200D11CE180223C001204D9
:1006E0001443A0466246382A00DD61E11F2A00DD7E
:1006F000CCE164462022121B444694400F00A146E0
:1007000064469140E7404C464A1E91413C43424674
:1007100021436446E240801A5C1AA3429B415F4237
:10072000C71B3B0200D4D0E07F027F0A002F00D11C
:10073000FFE0380001F08AFD010008392023220083
:100740005B1A8F40DA408C401743B14200DAFFE079
:10075000891B4B1C1F2B00DDA8E020223900D21A78
:10076000200094409140D840621E9441DF40002612
:1007700001430C43630709D00F232340042B05D00A
:10078000231DA342A44164423F191C003B0200D434
:100790009EE0954B01369E4200D1B7E0934AE408B3
:1007A00017407B0771057F0223433F0B4A0D12055B
:1007B0003A43ED072A4318001100E0BCBA46B1469F
:1007C000A846F0BD002C4BD04C46A41BA446002EDE
:1007D00000D023E104001C4300D1AFE16246541E67
:1007E000012A00D115E2804DAC4500D1C8E1A446F4
:1007F0001BE14A46B21A9446002A00DCACE04A46A5
:10080000002A43D0784A964200D1AFE180223C00D2
:1008100012041443A0466246382A67DC1F2A00DC13
:100820005FE14746203AD7406246202A05D0644619
:100830004022121B4446944021434A1E91410C0021
:100840003C4357E03A000A4300D105E12200013A57
:10085000012C00D182E1644CA4455BD0944641E771
:10086000634C771C274200D0C4E004001C43002ED8
:1008700000D069E1002C00D1BFE144460C4300D018
:10088000D0E14207DB081343C00829E03A000A43DD
:1008900000D170E162466446013A012C00D1E0E0EB
:1008A000514CA44500D161E19446B4E73A001F39A8
:1008B000CA401100202B03D04022D31A9F403C4352
:1008C000631E9C41002700260C43630700D053E7BA
:1008D000B446E4087B072343F808434A94451DD0F7
:1008E0006246070352053F0B520D60E744460C4336
:1008F000621E9441E4189C429B415F423F183B02B8
:10090000E3D5394B01369E4200D0B5E032000027D6
:1009100000234CE74207DB081343C0081A000243D8
:1009200000D1E1E180273F0307433F032E4A3F0BFD
:100930003DE7200001F08AFC010018311F2900DC8E
:10094000FCE60838844027000024B14200DBFFE6C3
:10095000264A761A17400DE7002A2FD04A46921BE6
:100960009446002E00D1ADE01F4A914500D10FE121
:100970008022120410436246382A00DD0FE11F2A4C
:1009800000DD80E1644620221E00121B6746040041
:1009900093409440FE405A1E9341F84034431C4318
:1009A000804464188C42BF417F424E464744A6E7CC
:1009B00042460A4311004A1E9141ADE60C4C721C9E
:1009C000224200D0A1E002001A43002E00D0FAE03B
:1009D000002A00D145E13A000A4300D046E142072F
:1009E000DB081343C0087BE7FF070000FFFF7FFF22
:1009F000FE07000047465C1AC21BA342BF417F426C
:100A0000B94617004A46BF1A3A0200D58DE02300C6
:100A10003B4300D08AE60020002561E7B44CA145A5
:100A200000D1ADE08024240420436446382C3DDC12
:100A300062461F2C00DDB7E020251E002D1B0400A0
:100A4000AB40AC40D640D04042465D1EAB41344343
:100A5000121A904623432CE04207DB081343C008D8
:100A60003BE75C189C429B4140445B42C71801260F
:100A70003B0200D429E702269E4A63081740012260
:100A800014401C43FB071C437F0873E64446203A8E
:100A9000D4406246202A05D067464022D21B4746F2
:100AA000974039434A1E9141214335E60343581E7E
:100AB0008341CC1AA142BF4143467F4255464E4630
:100AC000DF1B2EE602001A4300D1BDE062466446F9
:100AD000013A012C00D1E5E0854CA44558D094465C
:100AE00049E764462022121B444694400F00A14669
:100AF00064469140E7404C464A1E91413C43424681
:100B00000C436146CA408018F4E6794CA24200D1F9
:100B1000FDE6591899429B4140445F42C719FC07C2
:100B2000490816000C437F08CFE6CC1AA142BF410A
:100B300043467F42181A5546C71BF7E5C9087B078D
:100B400055460B43F808C8E6002C00D081E0434628
:100B50000B4315D1802000250003E3E65C1AA34275
:100B60009B41C71B5B420126FF1ADAE54207DB08FF
:100B70001343C008D2E64207DB081343C008ACE6C3
:100B800043464246C9085B0755460B43D008C5E6B5
:100B9000434642465B07C9080B43D008BEE6034301
:100BA0001C00631E9C41FCE60200203CE240140055
:100BB0006246202A03D04025AD1AA8400343581EA0
:100BC0008341234375E7002AE2D03A000A43CDD09F
:100BD0004207DB0813438022C0081203104206D0EC
:100BE000FC08144203D12000CB087A0713435A0FA4
:100BF000DB005207DB08134390E643460B4300D16A
:100C000009E743464246C9085B0755460B43D008EF
:100C100066E6CC1AA14289413F1A4942554601264F
:100C20007F1A7EE542465C1A871AA34292415242DD
:100C3000BF1A3A023DD5CC1AA142894143464942E6
:100C40001F1A55467F1A95E57B07C9080B43F8081C
:100C500043E64446DB080C4330D142071343C00847
:100C60005CE67B07C9080B43F80839E65C189C4230
:100C70009B4140445B42C7183B0200D425E61D4B14
:100C800001261F4021E60400203AD4406246202A73
:100C900004D040226646921B904003435A1E934163
:100CA0001C437EE65C188C42894140444942471807
:100CB000DDE623003B4300D1ADE606E644072343CF
:100CC0008024C0082403204208D04246D608264289
:100CD00004D155463000CB0851070B435A0FDB00B7
:100CE000DB085207134319E60023014A1F005EE5A3
:100CF000FF070000FFFF7FFFF0B557464E46454611
:100D0000DE46E0B5814605000C03480092461F0010
:100D100085B0240B400DCE0F002800D156E1D44BF6
:100D2000984200D172E16B0FE4001C4380231B0446
:100D300023439846CF4BED009B46002399468344BE
:100D400000933C037B005046240B5B0DFF0F002BF0
:100D500000D11FE1C64A934200D162E1C549420F6A
:100D60008C46E40059461443802263441204CB1A93
:100D700014439B46C200002033007B409A464B46FA
:100D80000F2B27D8BC499B00CB589F46B246009BEF
:100D9000022B16D0032B00D18EE2012B00D0D9E01C
:100DA00000230024002552461B052343D20713438A
:100DB0002800190005B0F0BCBB46B246A946A046C3
:100DC000F0BD00240025AA4BEDE7BA46A046150069
:100DD0000090DCE7444500D2C7E100D1C2E1012325
:100DE0005B429C462E0040460025E3442302140E3D
:100DF0001C431B0C994623041F0C12024946009207
:100E00000197FFF723FA02007A430B04310C804666
:100E100019438A4207D901235B429C460919E044E1
:100E20008C4200D807E2881A4946FFF70FFA0904F6
:100E30008C4631046646019A090C42430300314353
:100E40008A4204D90919013B8C4200D8EDE1881A85
:100E5000424612041A4390464146009B0E041B0C66
:100E60001F000293009B360C1B04190C0B007343EC
:100E7000120C7E43039151437A431F0CBC467618F3
:100E80006644B14203D9802149028C466244310C48
:100E90008A1831041E04360C8E19904202D312D1E6
:100EA000B54210D24346591E009B9C4665441F0024
:100EB0009D429B415B421B19C018844200D2A0E1B5
:100EC00000D19BE18846AE1BB542AD41801A6D4210
:100ED000401B844200D1D5E14946FFF7B7F9019A9A
:100EE0000B044243310C050019438A4200D96CE1DE
:100EF000881A4946FFF7AAF9019A360442430904C1
:100F0000360C03000E43B24200D953E10398B61ADF
:100F100002002D041D43029F2B041B0C5A437B43EC
:100F20009C46290C4843130C8444634479439842FB
:100F300003D98020400284466144180C12041B042B
:100F4000120C41189B188E4200D2FFE000D1FAE04B
:100F500001231D43494A5A44002A00DCAAE06B07DA
:100F600000D03DE1ED084346DB0106D54246444B47
:100F70001A4090468022D2005A44424B9A4200DDE9
:100F80001FE743465B071D43434652055C02240BA3
:100F9000530D08E75246224300D17BE0002C00D1DC
:100FA000FAE0200001F052F902000B3A1D23010083
:100FB0009B1A52460839DA408C40144352468A4004
:100FC000314B58449B4683440020D5E64B4623438F
:100FD000984644D0002C00D1CEE0200001F036F934
:100FE000010002000B391D235B1A49461000D9404D
:100FF000083884400B004D462343984685402348DB
:10100000831A9B460023994600939AE64B46234356
:1010100098461DD108239946063B00258346009338
:101020008FE65246224309D1022349461943184B01
:1010300089469C4600240220E3449DE603234A4659
:101040001A43134B91469C4652460320E34493E6D1
:101050000C239946093BA0468346009371E604237E
:10106000994600239B4601330025009369E6C0465C
:10107000FF07000001FCFFFFB8070108FF030000A5
:10108000FFFFFFFEFE070000F30300000DFCFFFF63
:1010900001F8FFFF49460123194389460024012036
:1010A0006AE6002380249A4600258A4B24037AE6C8
:1010B00001256D4201239B1A382B00DD70E61F2BA2
:1010C00000DCBFE01F2149428A1A4146D1400A0094
:1010D000202B04D04146804B5B4499400D436B1E4E
:1010E0009D4107232A431D0000241540134200D1CF
:1010F000D4E00F2100231140042900D1CBE0111DC1
:101100009142924152429B180A00190200D4C2E057
:1011100001230024002546E6802341461B03194293
:1011200008D01C4206D11C432403BA461500694B63
:10113000240B38E68024434624031C432403B24690
:10114000644B240B2FE6002B00D103E7A619681E81
:10115000A64200D28DE08E4200D2A3E000D1B3E0DF
:101160000500F5E6AA4200D939E64346DE075808ED
:101170006B081E43ED0739E6484601F067F80100A9
:101180000200153120321C2900DC2CE74B460838C0
:1011900083400025984632E701F058F803001A0012
:1011A000153220301C2A00DC00E75446083B0022A0
:1011B0009C4005E73619013BB44200D9A6E6B2428D
:1011C00000D8A3E6831E3619A0E60919013D8C421A
:1011D00000D98DE68A4200D88AE6851E091987E67D
:1011E0000F232B40042B00D1BCE605235B42AB420E
:1011F0009B4104355B42ED089844B4E6AF4200D908
:1012000060E6824204D800D05CE6AE4200D859E6DF
:1012100002235B429C46009BE0449C4665449D4201
:101220009B415B421B19C0184DE68A4200D80EE66E
:10123000831E09190BE68A4200D8F4E5831E9846FE
:101240000919F0E52549280059448D4042468A4055
:10125000691E8D414146D840D94002432A430B00C4
:10126000510700D151E70F211140042900D046E772
:101270004BE705008E4200D06AE6009A934200D008
:1012800066E667E6164A5A44002A00DC10E70123A6
:101290000025984467E65D075B021C0BD20800231B
:1012A000154380E50098023D42008242BF417F42E3
:1012B0003C1936190092DDE78024434624031C4381
:1012C0002403044B240B6EE5009A9A42EAD30500EE
:1012D000D3E7C046FF0700003E0400001E040000E4
:1012E000FF030000F0B54E464546DE4657469046A1
:1012F000E0B517001A03120B0500844619480E03C7
:101300004C0091465A00DB0F9B46360B640DC90F0B
:10131000520D844219D0824210D0012094420ED145
:101320004E450CD10120C44509D1594517D0002C98
:1013300005D130002843431E984100E00120F0BC55
:10134000BB46B246A946A046F0BD330001202B4360
:10135000F5D1A242F3D14B463B43F0D1E2E7002066
:10136000EDE7C046FF070000F0B54746CE46040053
:10137000180016001B031B0B2D4D4A00994680B523
:1013800043000F03A446B0463F0B520DC90F5B0D3F
:10139000C00FAA4221D0AB4213D0002A22D13C4335
:1013A000002B02D14D462E4322D0002C10D081427A
:1013B00022D00220013908400138C0BCB946B046ED
:1013C000F0BD4D462E4329D1002AF0D13C43EED149
:1013D0000028F2D101204042EFE73D0025431DD116
:1013E0009342EED0002BE2D14C462643DFD1E0E71A
:1013F0000020002CE1D0DCE79A420ADCE8DB4F4514
:10140000D7D80ED000204F45D7D20029E2D008000F
:10141000D3E74342584140000138CEE70220404222
:10142000CBE7C445C5D80020C445C6D2EDE7C046C9
:10143000FF070000F0B54746CE460400180016002E
:101440001B031B0B2C4D4A00994680B543000F032C
:10145000A446B0463F0B520DC90F5B0DC00FAA4208
:101460000DD0AB4210D0002A27D13C43002B11D124
:101470004D462E430ED10020002C15D00EE03D002D
:10148000254310D1934218D14D462E430BD1002A4B
:1014900002D13C43002C0BD0814214D002200139F0
:1014A0000840013800E00220C0BCB946B046F0BD9B
:1014B0000028F9D101204042F6E7002BECD14C4640
:1014C0002643E9D1EAE79A4204DD4342584140000D
:1014D0000138E9E79A42EBDB4F45DFD806D0002020
:1014E0004F45E1D20029E5D00800DDE7C445D5D855
:1014F0000020C445D8D2F5E7FF070000F0B55746F5
:101500004E464546DE46E0B598460C034B000600C5
:10151000924687B0240B5B0DCF0F002B00D15CE10E
:10152000D94A934200D175E1420FE400144380226E
:1015300012041443D54AC500944663440093002323
:1015400099469B46434642461E03D20F5B005046D7
:101550009046360B5B0D00D120E1CB4A934200D17F
:1015600062E1CA49420F8C4600996344F6008C46FA
:10157000164380229C44120463461643C200002096
:1015800000930099434601318C4649467B400193C4
:101590000F2926D8BE4B890059588F4643460193E0
:1015A0003400150083465B46022B16D0032B00D176
:1015B00003E2012B00D0CDE0002200240025019B96
:1015C00012052243DB071A432800110007B0F0BCC4
:1015D000BB46B246A946A046F0BD00240025AA4A53
:1015E000EDE7280C2D042D0C2B00110C1204120C0D
:1015F0005343984613002F00434399464F434F44AB
:10160000BB4647460B003F0CBA464343DA440293BD
:10161000D14504D980277F02B9464B4402935346F3
:101620001B0C9B4653461F0443461B041B0C984649
:101630003B0043440493330C3604360C9846330085
:1016400043439946434643432F009A4643467743D4
:101650005D43380C4D444519A94503D980235B02ED
:101660009946CA443F04280C3F0C2D04ED19270C61
:101670002404240C0300200050437A4391463A008E
:1016800053440593030C9A464A43614349445144E9
:10169000AB44894503D980235B0299464A44000440
:1016A0000B0C000C090409182000994643467043AE
:1016B0005C437E435F43030C9846A41944444A4468
:1016C0000397A64204D980235B02984647440397B8
:1016D0002304029E9A46059B5E449846AE42AD4165
:1016E00076188E4289410004000C504440446D42FB
:1016F0004719B846934649428946C344D94498425B
:101700008041A845AD4193459241894589416D424B
:1017100040422843240C524249420A43039B001989
:101720008018C7184B46DC0D049B75021D436A1ECA
:1017300095414B46F60D7F0235435A023C43154313
:10174000FB0100D41CE101216A080D401543E207AA
:10175000154364084F496144002900DCB0E06B0781
:1017600009D00F222A40042A05D02A1DAA42AD41E1
:101770006D4264191500E30104D58021464AC90071
:1017800014406144454A914200DD26E76207ED08B6
:10179000640249051543240B4A0D10E752463243B3
:1017A00000D17FE0002E00D1DCE0300000F04EFDE3
:1017B00002000B3A1D2301009B1A52460839DA40F9
:1017C0008E40164352468A40009B3549181A030042
:1017D0008C46634400200093D3E6250005434AD09D
:1017E000002C00D1B0E0200000F030FD010002002C
:1017F0000B391D2310005B1A310035000838844076
:10180000D94085400C432648831A0093002399460B
:101810009B4697E60500254326D108220093022324
:10182000002491469B468DE65246009B324310D1E0
:10183000154900268C466344494600930223194308
:10184000894602209DE65B460197022B00D0ADE65B
:10185000C3E60D4A0320944663444A46009303239B
:101860001A43914652468CE60C220093032305004E
:1018700091469B4666E60423994600230093013374
:1018800000249B465EE6C046FF07000001FCFFFF08
:10189000F8070108FF030000FFFFFFFEFE0700003E
:1018A0000DFCFFFF4946012319438946002601200C
:1018B00067E6002380240025434A019324037EE643
:1018C0000120401A382800DD76E61F285BDD1F2244
:1018D00023005242511ACB401900202803D03B4A22
:1018E0006244944025436A1E95412A000A43072119
:1018F0000D000024154011425BD00F21002411403F
:10190000042953D0111D914292415242A4180A0059
:1019100023024BD501220024002550E680231B031F
:101920001C4209D01E4207D133431C034346150015
:10193000240B254A019342E6802212031443240318
:10194000214A240B01973AE600F080FC01000200D6
:10195000153120321C2900DC4BE734000838002503
:10196000844050E700F072FC03001A00153220306A
:101970001C2A00DC1EE75646083B00229E4023E757
:10198000009B9C46E6E61249220061442E008D40F1
:101990008A40C640691E8D4132432A43C4405307E2
:1019A000B6D00F2111400429ACD1B1E7650764021C
:1019B000240BD2081543002201E6802212031443AF
:1019C0002403014A240BFAE5FF0700003E0400004F
:1019D0001E040000F8B557464E464546DE46E0B5C3
:1019E0001E0017004A000B03520D5B0A9046420F7F
:1019F0001A43CD0FCD4C3103C300944670007A0FCB
:101A0000490AFF009A46B946400DF60F1143A0421D
:101A100000D1B1E001225640B346B54200D188E082
:101A20004246121A002A00DCAEE0002800D1C1E0D4
:101A3000BE48804500D151E1802000040143382A8E
:101A400000DD7BE11F2A00DDEEE120203E00801A50
:101A50000C00D640D140874062468440521A781E1E
:101A60008741944634432743DC1BA3429B41624693
:101A70005B42D31A99464B461B0200D418E14B46F1
:101A80005802430A99464B46002B00D137E148469D
:101A900000F0DCFB010008392023220048465B1AD5
:101AA000DA4088408C4043461043884500DD36E1EB
:101AB000C91A4B1C1F2B00DDEAE020222600D21A97
:101AC00001009440DE40D84000239140621E9441C2
:101AD0008146984631430C43630709D00F232340C6
:101AE000042B05D0231DA342A4416442A1441C0041
:101AF0004B461B0200D4DEE041468C4B013199423B
:101B000000D1E7E04B468A48E40803401800490545
:101B10005B07400223434A0D040B1205ED072243E5
:101B20002A4318001100F0BCBB46B246A946A046A5
:101B3000F8BD4246121A002A52DD002800D19CE06E
:101B4000A04500D1CAE0802000040143382A00DD0E
:101B500049E11F2A00DC97E110000E002038C64042
:101B6000202A04D04020821A91400F43B9464C46A7
:101B7000621E944134433AE10A003A4328D0B34606
:101B8000B5422BD06B4A4244002A5DD042464446BF
:101B9000821A002C00D0F5E065461D4300D19CE17F
:101BA000551E012A00D1FBE1604CA24200D1BDE1EB
:101BB0002A00F0E00800384300D1C3E0501E012A9B
:101BC00000D1A8E1594CA24200D187E0020036E7DB
:101BD00001225640B346B54200D021E7554A42445F
:101BE000002A00D1B5E042464446821A002C00D1BA
:101BF00038E14E4EB04200D1DEE180266446360424
:101C00003443A446382A00DD96E11F2A00DD24E291
:101C10002026B41AA24664465646B440A1461C008B
:101C20004E46D440264334005646B3405E1EB34170
:101C30001C436346D340C918E419BC42BF417F42EC
:101C4000B94680468944D8E040463B4C01302042AA
:101C500000D0B4E04046002800D044E1604618437C
:101C600000D190E10800384300D0AAE16146DB08CA
:101C700049070B436146CC0827E00800384361D090
:101C8000501E012A00D139E1A24227D002005DE7AF
:101C900002001F39CA401100202B03D04022D31A62
:101CA00098400443631E9C410023994698460C4388
:101CB000630700D012E74B464A46E4085B0723431C
:101CC000D408424619498A420ED024035205240BF7
:101CD000520D22E70A00002400231EE7DB086246BB
:101CE000520713436246D4081A00224300D1FCE194
:101CF00080221203144324030C4A240B0DE7200016
:101D000000F0A4FA010018311F2900DCC4E60838ED
:101D10008440434620000024884500DCC8E6044A8D
:101D20005B1A104098468146D6E6C046FF07000081
:101D3000FFFF7FFF01F8FFFFFE0700000F437A1E41
:101D4000974191E66146DB0849070B436146CC08A1
:101D5000B8E74046D34C0130204200D0A2E04046D4
:101D6000002800D001E16046184300D15EE1080080
:101D7000384300D05FE16146DB0849070B43614609
:101D8000CC08A2E7C84DA84200D1CFE08025644628
:101D90002D042C43A446382A56DC1F2A00DDD1E04E
:101DA00020251E00AD1A6446AB40AC40D6405D1EF7
:101DB000AB41344323436446D440091B49E06046A9
:101DC000DC1B461AA34280414042814630004E4609
:101DD000801B8146000276D44B46234300D052E656
:101DE0000024002571E739430C00621E9441E41879
:101DF0009C429B415B42634499464B461B0200D484
:101E000056E701239C46A84BE044984538D04B4602
:101E1000A648012203401800630814401C43C3076E
:101E20001C434308994657E610000E002038C64070
:101E3000202A04D04020821A91400F43B9464F46D1
:101E40007A1E974137430FE662461A4313005A1E23
:101E50009341FC1AA742BF417F42CB1B99465D4686
:101E6000804608E666461E4300D1BEE0561E012AA3
:101E700000D109E18C4CA24200D119E13200C1E647
:101E800042460024002348E620200C00801A3E0031
:101E900087408440D640781E8741D14034433C433C
:101EA0008C44A4E7804A904200D1E9E0DF199F42C8
:101EB0009B4161445B42C918CC077F084B08994697
:101EC00080463C43F4E6FC1AA742BF4163467F428A
:101ED000C91ACB1B99465D46D5E5FF084B075D4601
:101EE0003B43CC08EEE662461A4300D082E00B008A
:101EF0003B431BD1802400252403F9E6DC199C42D6
:101F00009B41614489465B4299444B461B0244D441
:101F100001239846CCE6DC1B6246A3429B41511A42
:101F20005B42CB1A994601239846A4E5FF084B076C
:101F30005D463B43CC08D7E662461A431400631E55
:101F40009C4179E615006446203DEC40A046202ADD
:101F500005D040256446AA1A944023439A46544625
:101F6000631E9C414346234373E762461A4323D0D2
:101F70000A003A4300D0A0E06246DB085207134350
:101F80006246D408B0E60B003B4300D128E7FF08C7
:101F90004B075D463B43CC0897E60223984636E75D
:101FA000FC1AA742BF4163467F42C91ACB1B994620
:101FB00001235D4698465EE54B07FF083B43CC088E
:101FC00092E6DC1B6046A342B641401A7642801B73
:101FD0008146000260D5FC1AA742BF4163467F429A
:101FE000C91ACB1B99465D4676E5FF084B073B4374
:101FF000CC0867E60A00DB083A4300D16FE6624688
:10200000520713436246D40880221203144207D0B9
:10201000C808104204D15D460400FB0849070B4381
:102020005A0FDB00DB08520713435DE64B07FF083E
:102030003B43CC0849E6DC199C429B4161448946FC
:102040005B4299444B461B0200D431E64A46174B8B
:102050001A400123914698462AE616006446203E1F
:10206000F440A046202A05D040266446B21A944087
:1020700023439A465446631E9C4143461C43DBE57A
:1020800002000024002348E5DC19BC42BF41614442
:1020900089467F42B94438E74B46234300D19FE647
:1020A00006E6C046FE070000FF070000FFFF7FFFB7
:1020B000FF084B073B43CC0816E66246DB08520795
:1020C00013436246D40880221203144207D0C80882
:1020D000104204D15D460400FB0849070B435A0F28
:1020E000DB005207DB081343FEE50023014A1C0016
:1020F00013E5C046FF07000070B505000C481C033F
:1021000016005B000A034900120B490D240B5B0DFE
:10211000814208D0064A0020934203D12000304378
:10212000431E984170BD01202A43FBD1F2E7C0460F
:10213000FF0700000A0030B5134C530009030500E7
:10214000090B00205B0DD20FA34204DD0F48834230
:1021500002DD0F4BD01830BD8020400301430D48F5
:10216000C01A1F2808DD0C48C31AD9400B0058427A
:10217000002AF0D11800EEE7084CC540A44663449D
:1021800099400B002B43F2E7FE0300001D04000002
:10219000FFFFFF7F3304000013040000EDFBFFFF8F
:1021A00070B5002816D0C317C5185D40C40F2800AD
:1021B00000F04CF8114A121A0A2816DC03002E000F
:1021C00015339E400B23181AC54052052D032D0BC5
:1021D000530D03E000240023002500261B052B439C
:1021E000E40723433000190070BD0B3885405205C9
:1021F0002D0300262D0B530DF0E7C0461E040000F2
:1022000010B5041E10D000F021F80F4B1B1A0A283D
:1022100011DC0B222100121AD14015300A035B0594
:102220008440120B5B0D01E0002300221B051343C9
:102230002000190010BD22000B3882405B051203FC
:102240000024120B5B0DF1E71E0400001C2101238A
:102250001B04984201D3000C10391B0A984201D389
:10226000000A08391B09984201D30009043902A267
:10227000105C40187047C0460403020201010101CE
:10228000000000000000000010B5002903D1FFF796
:10229000DDFF203002E00800FFF7D8FF10BDC04688
:1022A00080B500AF03F0F8FC00F04EF800F0AAF89B
:1022B000C046BD4680BD000080B588B000AF1E4B53
:1022C0001B68FA2291001800FDF73AFF0300013B5A
:1022D0007B611A4B3B611A4BFB608023DB04BB60C4
:1022E0003B691B687A69D31AFB6103F001F90300AB
:1022F000BB61FB681B68BA68134007D0BB69013338
:10230000BB613B691B687A69D31AFB61BA69130028
:102310009B009B185B007B600A4B1B681900F869E7
:10232000FDF70EFF03001A007B689B187B607B683B
:102330001800BD4608B080BD6800002018E000E02D
:1023400004ED00E0201D002090B595B000AF1424EE
:102350003B1918003C231A00002109F09EF83B1D90
:10236000180010231A00002109F097F880239B0021
:10237000180005F029F93B1902221A603B19802246
:102380005200DA6021007B1800221A617B1840227B
:102390005A617B1802221A627B1802225A627B1849
:1023A00030229A627B182D22DA627B18C022D20278
:1023B0001A637B18802292045A637B18C022D205CC
:1023C0009A637B18180005F04BF9031E01D000F04A
:1023D000F4FE3B1D07221A603B1D02225A603B1D82
:1023E00000229A603B1D0022DA603B1D012118008B
:1023F00005F096FC031E01D000F0DFFEC046BD468E
:1024000015B090BD80B500AF01F0E6F8C046BD46FE
:1024100080BD0000F0B585B000AF05000C001000D5
:102420001900BB1D2A1C1A807B1D221C1A703B1D23
:10243000021C1A70FB1C0A1C1A700F23FB180022C6
:102440001A70BB1D1B88783BFF3B0B2B00D9AEE0FD
:102450009A005D4BD3181B689F467B1D1B785A1E44
:10246000202608257319DB19197858481300DB005A
:102470009B1ADB00C3185C5C7B1D1B785A1E71190C
:10248000CB191B78591C51481300DB009B1ADB0049
:10249000C3185D5C7B1D1B785A1E0823F318DB19DB
:1024A0001B78991C49481300DB009B1ADB00C318FA
:1024B0005B5C1A002900200000F0C0F87CE07B1D66
:1024C0001B785A1E202308215B18DB1919783F4816
:1024D0001300DB009B1ADB00C3185B5C180000F0E4
:1024E00017F969E07B1D1B785A1E202608257319F1
:1024F000DB19197835481300DB009B1ADB00C31881
:102500005C5C7B1D1B785A1E7119CB191B78591CFA
:102510002E481300DB009B1ADB00C3185D5C7B1D9B
:102520001B785A1E0823F318DB191B78591C2748FF
:102530001300DB009B1ADB00C3185B5C1A00290048
:10254000200000F000F937E0012000F023F933E02B
:10255000002000F01FF92FE0002000F035F92BE0FB
:10256000012000F031F927E07B1D1B785A1E202343
:1025700008215B18DB19197814481300DB009B1A3B
:10258000DB00C3185B5C180000F058F914E0002071
:1025900000F08EF910E0012000F08AF90CE0002034
:1025A00000F0A0F908E0012000F09CF904E00F23FE
:1025B000FB1801221A70C0460F23FB181B78180065
:1025C000BD4605B0F0BDC0465C06010824150020DC
:1025D00080B582B000AF78607B681B68124A934276
:1025E00001D101231CE07B681B68104A934201D192
:1025F000022315E07B681B680D4A934201D1032337
:102600000EE07B681B680B4A934201D1042307E06C
:102610007B681B68084A934201D1052300E0002330
:102620001800BD4602B080BD0038014000440040A3
:1026300000480040004C00400050004090B585B07C
:1026400000AF040008001100FB1D221C1A70BB1D06
:10265000021C1A707B1D0A1C1A700F23FB18002223
:102660001A707B1D1A78BB1D1978FB1D1B7818008A
:1026700002F024F8031E01D0FF2302E00F23FB1811
:102680001B781800BD4605B090BD000080B500AFB6
:1026900080235A010C490D4B180006F08BF9031EDC
:1026A00001D0FF230DE0FA23DB000949074801228E
:1026B00006F0E4F8031E01D0FF2302E0044B0122E0
:1026C0001A701800BD4680BD4C210020B4200020A7
:1026D0000C00002080B500AF0A4B01221A700A4B93
:1026E000180004F035FD031E01D0FF2307E0074B5F
:1026F000180006F02BFA031E01D0FF23FFE7180095
:10270000BD4680BD6000002040320020B420002083
:1027100080B584B000AF0200FB1D1A700F23FB18B8
:1027200000221A70FB1D1B781900002001F01CFF0D
:10273000031E01D0FF2302E00F23FB181B781800B3
:10274000BD4604B080BD90B585B000AF0400080060
:102750001100FB1D221C1A70BB1D021C1A707B1D70
:102760000A1C1A700F23FB1800221A707B1D1A789E
:10277000BB1D1978FB1D1B78180001F0E9FF031E33
:1027800001D0FF2302E00F23FB181B781800BD4681
:1027900005B090BD80B584B000AF0200FB1D1A707B
:1027A0000F23FB1800221A70FB1D1B78180002F083
:1027B0007BF8031E01D0FF2302E00F23FB181B78D8
:1027C0001800BD4604B080BD80B584B000AF0200E3
:1027D000FB1D1A700F23FB1800221A70FB1D1B78BB
:1027E000180001F01DFE031E01D0FF2302E00F239D
:1027F000FB181B781800BD4604B080BD80B584B0BE
:1028000000AF0200FB1D1A70BB1D0A1C1A700F23BB
:10281000FB1800221A70BB1D1A78FB1D1B781100D3
:10282000180001F067FC031E01D0FF2302E00F2314
:10283000FB181B781800BD4604B080BD80B584B07D
:1028400000AF0200FB1D1A700F23FB1800221A7044
:10285000FB1D1B78002B0AD1002000F029F8031E75
:1028600001D0FF231DE0114B01221A7016E0FB1D61
:102870001B78180001F05EFB031E01D0FF2310E05F
:102880000A4B1B78002B09D0012000F011F8031E21
:1028900001D0FF2305E0054B00221A700F23FB181F
:1028A0001B781800BD4604B080BDC04648210020FA
:1028B00080B584B000AF0200FB1D1A700F23FB1817
:1028C00000221A70FB1D1B78180001F0E1FB031EAB
:1028D00001D0FF2302E00F23FB181B781800BD4630
:1028E00004B080BD80B584B000AF0200FB1D1A703B
:1028F0000F23FB1800221A70FB1D1B78180001F033
:1029000095FB031E01D0FF2302E00F23FB181B7869
:102910001800BD4604B080BDF0B58DB000AFF860C2
:10292000B9607A602F243B1900221A700023BB6221
:1029300000237B6200233B621F257B1900221A7053
:102940001E23FB1800221A701D217B1800221A700A
:102950000023BB6100237B6100233B611822BA186E
:10296000FB680121180002F0AFF80300BB621422DB
:10297000BA18FB680221180002F0A6F803007B6277
:102980001022BA18FB680321180002F09DF803001A
:102990003B62BB6A180008F03BFB02002E007B196B
:1029A0001A707B6A180008F033FB02001E23FB1824
:1029B0001A703B6A180008F02BFB02001D217B18DF
:1029C0001A7025003C197B181A781E23FB181978F9
:1029D000BB191B781800FFF731FE030023707B1929
:1029E0001B78002B07D10C4B1A68FB6811001800EC
:1029F00008F020FF0BE02F23FB181B78FF2B06D1DC
:102A0000064B1A68FB681100180008F033FF00231A
:102A10001800BD460DB0F0BD1000002014000020CD
:102A2000B0B586B000AFF860B9607A6017257B1941
:102A300000221A707C19FFF729FE030023707B190E
:102A40001B78002B07D10C4B1A68FB68110018008B
:102A500008F0F0FE0BE01723FB181B78FF2B06D1C4
:102A6000064B1A68FB681100180008F003FF0023EA
:102A70001800BD4606B0B0BD180000201C000020A4
:102A8000B0B586B000AFF860B9607A6017257B19E1
:102A900000221A707C19FFF71DFE030023707B19BA
:102AA0001B78002B07D10C4B1A68FB68110018002B
:102AB00008F0C0FE0BE01723FB181B78FF2B06D194
:102AC000064B1A68FB681100180008F0D3FE0023BB
:102AD0001800BD4606B0B0BD200000202400002034
:102AE000B0B588B000AFF860B9607A601F243B19B8
:102AF00000221A701E257B1900221A7000237B61A8
:102B00000023BB611423FA18FB680121180001F0AF
:102B1000DBFF0300BB61BB69180008F079FA020013
:102B200029007B181A7025003C197B181B781800A7
:102B3000FFF7EEFD030023707B191B78002B07D1F4
:102B40000C4B1A68FB681100180008F073FE0BE0CC
:102B50001F23FB181B78FF2B06D1074B1A68FB6855
:102B60001100180008F086FE00231800BD4608B0CA
:102B7000B0BDC046280000202C000020F0B58DB06C
:102B800000AFF860B9607A602F243B1900221A70F8
:102B90000023BB6200237B6200233B621F257B195D
:102BA00000221A701E217B1800221A700023BB61BC
:102BB00000237B6100233B611823FA18FB68022184
:102BC000180001F081FF0300BB621423FA18FB68B0
:102BD0000221180001F078FF03007B621023FA182D
:102BE000FB680321180001F06FFF03003B62BB6A22
:102BF000180008F00DFA02001D23FB181A707B6AFA
:102C0000180008F005FA02002E007B191A703B6AC2
:102C1000180008F0FDF902001E217B181A7025002B
:102C20003C197B181A78BB1919781D23FB181B78DF
:102C30001800FFF788FD030023707B191B78002B19
:102C400007D10C4B1A68FB681100180008F0F2FD60
:102C50000BE02F23FB181B78FF2B06D1064B1A68BD
:102C6000FB681100180008F005FE00231800BD469F
:102C70000DB0F0BD3000002034000020B0B588B0A9
:102C800000AFF860B9607A601F243B1900221A7007
:102C90000023BB6117257B1900221A7000233B61BA
:102CA0001023FA18FB680121180001F00DFF030042
:102CB000BB61BB69180008F0ABF9020029007B1862
:102CC0001A7025003C197B181B781800FFF762FD6D
:102CD000030023707B191B78002B07D10C4B1A685B
:102CE000FB681100180008F0A5FD0BE01F23FB187E
:102CF0001B78FF2B06D1074B1A68FB6811001800E0
:102D000008F0B8FD00231800BD4608B0B0BDC046AD
:102D1000380000203C000020B0B588B000AFF8605B
:102D2000B9607A601F243B1900221A700023BB612E
:102D300017257B1900221A7000233B611023FA1813
:102D4000FB680221180001F0BFFE0300BB61BB69F4
:102D5000180008F05DF9020029007B181A702500A0
:102D60003C197B181B781800FFF72EFD0300237019
:102D70007B191B78002B07D10C4B1A68FB681100DC
:102D8000180008F057FD0BE01F23FB181B78FF2BE2
:102D900006D1074B1A68FB681100180008F06AFD9D
:102DA00000231800BD4608B0B0BDC046400000205A
:102DB00044000020B0B588B000AFF860B9607A6018
:102DC0001F243B1900221A700023BB6117257B19B1
:102DD00000221A7000233B611023FA187B6801213E
:102DE000180001F071FE0300BB61BB69180008F018
:102DF0000FF9020029007B181A7025003C197B1876
:102E00001B781800FFF71AFD030023707B191B784D
:102E1000002B07D10C4B1A68FB681100180008F052
:102E200009FD0BE01F23FB181B78FF2B06D1074B76
:102E30001A68FB681100180008F01CFD0023180038
:102E4000BD4608B0B0BDC046480000204C00002080
:102E5000B0B588B000AFF860B9607A601F257B1903
:102E600000221A700023BB6117243B1900221A703C
:102E700000233B611023FA187B680121180001F040
:102E800023FE0300BB61BB69180008F0C1F8020013
:102E90003B191A703B191B78002B06D17C190120B5
:102EA000FFF706FD030023700BE01723FB181B78C8
:102EB000012B06D11F23FC180020FFF7F9FC0300AB
:102EC00023701F23FB181B78002B07D10C4B1A68AB
:102ED000FB681100180008F0ADFC0BE01F23FB1885
:102EE0001B78FF2B06D1074B1A68FB6811001800EE
:102EF00008F0C0FC00231800BD4608B0B0BDC046B5
:102F00005000002054000020B0B588B000AFF86039
:102F1000B9607A601F257B1900221A700023BB61FB
:102F200017243B1900221A7000233B611023FA1862
:102F30007B680121180001F0C7FD0300BB61BB697C
:102F4000180008F065F802003B191A703B191B784D
:102F5000002B06D17C190120FFF7C4FC030023706D
:102F60000BE01723FB181B78012B06D11F23FC183D
:102F70000020FFF7B7FC030023701F23FB181B780A
:102F8000002B07D10C4B1A68FB681100180008F0E1
:102F900051FC0BE01F23FB181B78FF2B06D1074BBE
:102FA0001A68FB681100180008F064FC0023180080
:102FB000BD4608B0B0BDC046580000205C000020EF
:102FC00080B582B000AF78607B68DB6F180000F0DE
:102FD0000BF87B68DB6F00229A627B680022DA675D
:102FE000C046BD4602B080BD80B582B000AF7860FB
:102FF0007B681B68294A934247D0284A934248D8A5
:10300000274A934241D0264A934242D8254A9342C6
:103010003BD0244A93423CD8234A934231D0224A9F
:10302000934236D8214A93422BD0204A934230D83B
:103030001F4A934229D01E4A93422AD81D4A9342DE
:1030400023D01C4A934224D81B4A93421DD01A4ACB
:1030500093421ED8194A934217D0184A934218D85F
:10306000174A93420DD0164A934212D8154A9342FA
:1030700003D0154A934204D00BE0092002F085FFEB
:1030800008E00A2002F081FF04E00B2002F07DFF3F
:1030900000E0C046C046BD4602B080BD58040240B4
:1030A00044040240300402401C0402400804024070
:1030B000800002406C000240580002404400024080
:1030C00030000240080002401C00024080B584B07D
:1030D00000AF78600A00BB1C1A807B68002B0BD005
:1030E000BB1C19887B680122180003F049FC0F23E0
:1030F000FB1800221A7003E00F23FB18FF221A703E
:103100000F23FB181B781800BD4604B080BD80B5A6
:1031100084B000AF78600A00BB1C1A807B68002B6B
:103120000BD0BB1C19887B680022180003F028FC18
:103130000F23FB1800221A7003E00F23FB18FF2255
:103140001A700F23FB181B781800BD4604B080BD11
:10315000F0B589B002AFF86008007A6019000A255E
:103160007B19021C1A8008203B180A1C1A8017269B
:10317000BB1900221A70FB68002B13D07B68002B50
:1031800010D03B181C887A687B191988F8680A23C4
:103190000093230003F012FC031E07D1BB19002289
:1031A0001A7003E01723FB18FF221A701723FB186D
:1031B0001B781800BD4607B0F0BD80B500AFFEE734
:1031C00080B500AFBFF34F8FC046044B044ADA60AE
:1031D000BFF34F8FC046C046FDE7C04600ED00E09C
:1031E0000400FA0580B500AFFEE780B500AF02F03D
:1031F000BDFD01F05DFCC046BD4680BD80B584B01C
:1032000002AF0B4B7B600B4B18787968FF23009360
:10321000FF23112200F048FD064B1878064B196871
:10322000FF230093FF230F2200F03EFDFFF7C8FFAE
:10323000B8060108B01600206400002080B582B0F6
:1032400000AF00237B60074B180005F033FD7B685F
:10325000002B03D0044B802252051A60C046BD46A5
:1032600002B080BDD01D002004ED00E080B582B02A
:1032700000AF00237B60074B180005F01BFD7B6847
:10328000002B03D0044B802252051A60C046BD4675
:1032900002B080BD641E002004ED00E080B582B065
:1032A00000AF00237B600D4B180005F003FD0C4BB5
:1032B000180005F0FFFC0B4B180005F0FBFC0A4B57
:1032C000180005F0F7FC7B68002B03D0074B802229
:1032D00052051A60C046BD4602B080BDF81E0020EF
:1032E0008C1F002020200020B420002004ED00E0EE
:1032F00080B584B000AF78600023FB607B68DB6F33
:10330000002B03D07B681800FFF75AFE7B6818007B
:10331000FFF75EF903001A00064B9200D3580C2207
:10332000BA181100180001F0C6FDC046BD4604B031
:1033300080BDC046641D0020B0B584B000AF786089
:103340007B688822202199500F257C197B68180002
:10335000FFF73EF90300237029007B181B78254AEC
:10336000D35C022B13D17B181B785A1E224B920080
:10337000D3581B68283319007B6880229B581B6830
:103380005B689AB27B68180005F07AFB2EE00F2488
:103390003B191B78013B194A0021D1543B191B787A
:1033A000013B174A0021D1543B191B785A1E1300C8
:1033B0005B009B189B01134A9B18C0220021180038
:1033C00008F06BF83B191B785A1E13005B009B1822
:1033D0009B010C4A99187B68C022180005F050FB2D
:1033E0003B191B78013B084A0121D154C046BD4618
:1033F00004B0B0BD84100020A01B00202C100020C1
:1034000034100020A0170020DC1B002080B582B003
:1034100000AF786080239B000D480022190003F064
:10342000AFFA7B681B680B4A93420DD10A4B1B789D
:10343000012B09D180231A010849094B180003F018
:10344000DBFD054B00221A70C046BD4602B080BDB0
:1034500000040050003C0140600000204C2100208E
:103460004032002080B582B000AF786080235B00DE
:1034700014480022190003F083FA7B681B68124A83
:1034800093421BD180235B000E480122190003F0F8
:1034900077FA80239B000B480122190003F070FA91
:1034A00080231A0109490A4B180005F083FAFA2310
:1034B0009B0008490648012205F0E0F9C046BD46D8
:1034C00002B080BD00040050003001404C210020BB
:1034D000B42000200C00002080B582B000AF7860DE
:1034E00080235B0014480022190003F049FA7B682E
:1034F0001B68124A93421BD180235B000E480122B5
:10350000190003F03DFA80239B000B4801221900AB
:1035100003F036FA80231A0109490A4B180005F016
:1035200049FAFA239B0008490648012205F0A6F94A
:10353000C046BD4602B080BD0004005000300140CE
:103540004C290020B42000200C00002080B586B05B
:1035500002AF786039600B4BFB600B4B1878F96851
:10356000FF230093FF23102200F09EFB064B1878E8
:10357000064B1968FF230093FF230F2200F094FBF2
:10358000FFF71EFECC060108B016002064000020E4
:1035900080B500AF034B180004F0A8FFC046BD463D
:1035A00080BDC0463C33002080B500AF034B1800FF
:1035B00002F002FFC046BD4680BDC0467C320020FE
:1035C00080B500AF034B180003F08EFEC046BD4629
:1035D00080BDC0464032002080B500AF214B224A5A
:1035E0001A60204B214A5A601E4B00229A601D4BE4
:1035F0000022DA601B4B00221A611A4B0C225A611E
:10360000184B00229A61174B0022DA61154B0022F9
:103610001A62144B00229A62124B180005F0D8F877
:10362000031E01D0FFF7C9FD0E4B0021180007F063
:1036300000FC031E01D0FFF7C0FD0A4B002118005B
:1036400007F036FC031E01D0FFF7B7FD054B18004D
:1036500007F0B2FB031E01D0FFF7AFFDC046BD4629
:1036600080BDC046B4200020003C014060E82A0034
:10367000B0B5A6B000AF786084243B1918001423BD
:103680001A00002107F009FF38257B1918004C2388
:103690001A00002107F001FF7B681B68CB4A9342A8
:1036A00000D081E07B1901221A607B1900225A6048
:1036B0007B19180004F0DEFCC54B1A6CC44B80214A
:1036C000C9010A431A64C24B1A6C8023DB01134000
:1036D0007B637B6BBE4B5A6BBD4B01210A435A6324
:1036E000BB4B5B6B012213403B633B6B3B1980225E
:1036F00092001A603B1902225A603B1900229A601C
:103700003B190022DA603B1901221A613A19A02301
:10371000DB051100180002F0C7FF21007B18802292
:10372000D2001A607B1802225A607B1800229A602D
:103730007B180022DA607B1801221A617A18A02314
:10374000DB051100180002F0AFFFA24BA24A1A607D
:10375000A04B32225A609F4B00229A609D4B002260
:10376000DA609C4B80221A619A4B00225A61994B75
:1037700000229A61974B2022DA61964B00221A624E
:10378000944B180002F01EFC7B688021914A5A502D
:10379000904B7A689A62002200211B2002F0D0FB35
:1037A0001B2002F0E2FB67E27B681B688B4A9342B6
:1037B00000D081E038217B1802221A607B18002299
:1037C0009A607B18180004F055FC814BDA6B804B33
:1037D000802189020A43DA637D4BDA6B80239B02E6
:1037E0001340FB62FB6A7A4B5A6B794B01210A4307
:1037F0005A63774B5B6B01221340BB62BB6A842424
:103800003B1904221A603B1902225A603B1900221C
:103810009A603B190022DA603B1901221A613A19B9
:10382000A023DB051100180002F03EFF21007B18E9
:1038300008221A607B1802225A607B1800229A60C4
:103840007B180022DA607B1801221A617A18A02303
:10385000DB051100180002F027FF614B614A1A6076
:103860005F4B34225A605E4B00229A605C4B002210
:10387000DA605B4B80221A61594B00225A61584B27
:1038800000229A61564B2022DA61554B00221A62BF
:10389000534B180002F096FB7B688021504A5A5027
:1038A0004F4B7A689A62002200211C2002F048FBEC
:1038B0001C2002F05AFBDFE17B681B684A4A9342F6
:1038C00000D099E038217B1804221A607B1800226E
:1038D000DA607B18180004F0CDFB3D4BDA6B3C4BF3
:1038E0008021C9020A43DA63394BDA6B8023DB0299
:1038F00013407B627B6A364B5A6B354B02210A437D
:103900005A63334B5B6B022213403B623B6A842158
:103910007B188022D2001A600C003B1902225A60E8
:103920003B1900229A603B190022DA603B190422FD
:103930001A613B192D4A1900100002F0B5FE210052
:103940007B18802212011A607B1802225A607B18B1
:1039500000229A607B180022DA607B1804221A6128
:103960007B18224A1900100002F09EFE204B214ACB
:103970001A601F4B36225A601D4B00229A601C4B66
:103980000022DA601A4B80221A61194B00225A6118
:10399000174B00229A61164B2022DA61144B002249
:1039A0001A62134B180002F00DFB7B688021104A4D
:1039B0005A500F4B7A689A62002200211D2002F0B3
:1039C000BFFA1D2002F0D1FA56E1C046003801408E
:1039D000001002400C340020080002400044004067
:1039E0006C3400201C0002400048004000040050DD
:1039F000CC340020300002407B681B68A04A934210
:103A00006AD1A04BDA6B9F4B802109030A43DA632A
:103A10009C4BDA6B80231B031340FB61FB698424FE
:103A20003B1901221A603B1902225A603B190022FD
:103A30009A603B190022DA603B1904221A613A1994
:103A4000A023DB051100180002F02EFE21007B18D8
:103A500002221A607B1802225A607B1800229A60A8
:103A60007B180022DA607B1804221A617A18A023DE
:103A7000DB051100180002F017FE834B834A1A6021
:103A8000814B38225A60804B00229A607E4B002284
:103A9000DA607D4B80221A617B4B00225A617A4B9F
:103AA00000229A61784B2022DA61774B00221A6259
:103AB000754B180002F086FA7B688021724A5A50D2
:103AC000714B7A689A62002201211D2002F038FAB7
:103AD0001D2002F04AFACFE07B681B686C4A9342D3
:103AE00074D1684BDA6B674B802149000A43DA6373
:103AF000644BDA6B80235B001340BB61BB69614B95
:103B00005A6B604B08210A435A635E4B5B6B082279
:103B100013407B617B6984243B1908221A603B199E
:103B200002225A603B1900229A603B190022DA6097
:103B30003B1903221A613B19564A1900100002F082
:103B4000B3FD21007B1804221A607B1802225A6000
:103B50007B1800229A607B180022DA607B1803220F
:103B60001A617B184B4A1900100002F09DFD4A4B68
:103B70004A4A1A60484B4A225A60474B00229A60D0
:103B8000454B0022DA60444B80221A61424B0022EE
:103B90005A61414B00229A613F4B2022DA613E4B31
:103BA00000221A623C4B180002F00CFA7B6880215C
:103BB000394A5A50384B7A689A62002200211D20F7
:103BC00002F0BEF91D2002F0D0F955E07B681B68B9
:103BD000334A934250D12B4BDA6B2A4B8021890018
:103BE0000A43DA63274BDA6B80239B0013403B6167
:103BF0003B69244B5A6B234B02210A435A63214BE6
:103C00005B6B02221340FB60FB6884217B188022DF
:103C100052001A600C003B1902225A603B19002224
:103C20009A603B190022DA603B1908221A613B199D
:103C30001C4A1900100002F037FD21007B18802279
:103C400092001A607B1802225A607B1800229A6048
:103C50007B180022DA607B1808221A617B18114A4F
:103C60001900100002F020FD002200211D2002F0AA
:103C700067F91D2002F079F9C046BD4626B0B0BDF7
:103C8000004C0040001002402C350020440002404F
:103C900000500040000C00508C35002058000240BD
:103CA000003C014000040050B0B586B000AFB960E0
:103CB00011007B600F243B19021C1A700C23FB18A7
:103CC0000A1C1A801723FB1801221A703B191B7853
:103CD000180000F03FF8031E32D03B191A781C4B35
:103CE0009200D3587A681100180000F065FE031E98
:103CF00026D113E00F23FB181B78180000F02AF8D8
:103D000005001723FC18B86A0C23FB181A88B96839
:103D10000300280004F0B2FD030023701722BB1833
:103D20001B78002B03D0BB181B78032BE2D10F2389
:103D3000FB181A78064B9200D358180000F086FE44
:103D40001723FB181B781800BD4606B0B0BDC0464F
:103D5000641D002080B582B000AF0200FB1D1A7008
:103D6000FB1D1B78052B0ED89A00094BD3181B6836
:103D70009F46084B08E0084B06E0084B04E0084B60
:103D800002E0084B00E000231800BD4602B080BDF1
:103D900000070108D01D0020641E0020F81E00202E
:103DA0008C1F0020202000201748854600F0F0FDE1
:103DB00016481749174A002302E0D458C450043368
:103DC000C4188C42F9D3144A144C002301E0136048
:103DD0000432A242FBD312481249026800608A42B0
:103DE00005D000F0D5FD07F019F907F001F90E48EC
:103DF0000E4901600E480D4901600E4801688D466C
:103E000040680047FEE7000000400220000000205C
:103E1000280A0020E40B0108280A0020703800203E
:103E2000F03F0220EFBEADDE401002400100000076
:103E3000000001400000FF1FFEE7000080B582B0D7
:103E400000AF0200FB1D1A70FB1D1B78032B3ED038
:103E50004FDC022B29D04CDC002B02D0012B12D0DE
:103E600047E0334B10211800FFF751F9031E01D032
:103E7000FF2358E02E4B08211800FFF748F9031ED6
:103E800049D0FF234FE02A4B10211800FFF73FF9DC
:103E9000031E01D0FF2346E0254B08211800FFF741
:103EA00015F9031E39D0FF233DE0214B10211800E6
:103EB000FFF70CF9031E01D0FF2334E01C4B08214F
:103EC0001800FFF724F9031E29D0FF232BE0184B1D
:103ED00010211800FFF7FAF8031E01D0FF2322E09B
:103EE000134B08211800FFF7F1F8031E19D0FF2328
:103EF00019E00F4B10211800FFF709F9031E01D03C
:103F0000FF2310E00A4B08211800FFF700F9031EF9
:103F100008D0FF2307E0C04604E0C04602E0C046E8
:103F200000E0C04600231800BD4602B080BDC04678
:103F30000004005080B582B000AF0200FB1D1A7073
:103F4000FB1D1B78042B08D04FDC032B17D04CDC57
:103F5000012B26D0022B36D047E0334B40211800EE
:103F6000FFF7D5F8031E01D0FF2358E02E4B202188
:103F70001800FFF7CCF8031E49D0FF234FE02A4B6F
:103F800040211800FFF7C3F8031E01D0FF2346E0CD
:103F9000254B20211800FFF799F8031E39D0FF2385
:103FA0003DE0214B40211800FFF790F8031E01D09F
:103FB000FF2334E01C4B20211800FFF7A8F8031E54
:103FC00029D0FF232BE0184B40211800FFF77EF883
:103FD000031E01D0FF2322E0134B20211800FFF71E
:103FE00075F8031E19D0FF2319E00F4B402118006C
:103FF000FFF78DF8031E01D0FF2310E00A4B2021AC
:104000001800FFF784F8031E08D0FF2307E0C0461E
:1040100004E0C04602E0C04600E0C04600231800AD
:10402000BD4602B080BDC0460004005080B582B0DD
:1040300000AF0200FB1D1A70FB1D1B78002B02D085
:10404000012B09D011E0114B80211800FFF75FF818
:10405000031E13D0FF2315E00C4B80211800FFF73F
:1040600035F8031E0CD0FF230CE0084B802118000C
:10407000FFF72CF8031E04D0FF2303E0C04600E046
:10408000C04600231800BD4602B080BD00040050A9
:1040900080B582B000AF0200FB1D1A70FB1D1B78BB
:1040A000002B02D0012B09D011E0114B0221180086
:1040B000FFF72DF8031E13D0FF2315E00C4B022150
:1040C0001800FFF703F8031E0CD0FF230CE0084B89
:1040D00002211800FEF7FAFF031E04D0FF2303E0BD
:1040E000C04600E0C04600231800BD4602B080BDB7
:1040F000000C005080B582B000AF0200FB1D1A70AA
:10410000BB1D0A1C1A700020FFF790FF031E01D090
:10411000FF2319E0FB1D1B781800FFF78FFE031E1D
:1041200001D0FF2310E0BB1D1B781800FFF702FF32
:10413000031E01D0FF2307E00120FFF777FF031ED6
:1041400001D0FF2300E000231800BD4602B080BD6F
:1041500080B500AF294B1A787F210A401A70274B8F
:104160001A7840218A431A70244B1A7820210A4376
:104170001A70224B1A7810210A431A701F4B1A78B2
:1041800008218A431A701D4B1A7804218A431A7039
:104190001B4B1A7807218A431A70194B1A78082189
:1041A0008A431A70164B1A7810218A431A70154BDD
:1041B00008221A70114B1A78124B5A70114A124881
:1041C00002233021FEF7C4FF031E01D0FF2311E0BC
:1041D0000C4B09221A700A4B1A780A4B5A70094A7A
:1041E000094802233021FEF7B3FF031E01D0FF234D
:1041F00000E000231800BD4680BDC046B436002054
:10420000B8360020F43600209C31002090B583B0F1
:1042100000AF040008001100FB1D221C1A70BB1D1A
:10422000021C1A707B1D0A1C1A70FB1D1B780122D0
:104230001340DAB21F4BD0011A787F210A40111CBB
:10424000021C0A431A70BB1D1B7807221340DAB206
:10425000184B07210A4010011A7870218A43111C5B
:10426000021C0A431A707B1D1B7807221340DAB226
:10427000104B07210A4010001A7807218A43111CAD
:10428000021C0A431A700C4B0A221A70094B1A7846
:10429000094B5A70084A094802233021FEF758FF9B
:1042A000031E01D0FF2300E000231800BD4603B029
:1042B00090BDC046BC360020F43600209C31002062
:1042C00090B583B000AF0400080011003B60FB1DF7
:1042D000221C1A70BB1D021C1A707B1D0A1C1A704E
:1042E000FB1D1B7803221340DAB2484B03210A401E
:1042F00010011A7830218A43111C021C0A431A70DB
:10430000BB1D1B780F221340DAB2404B0F210A402D
:1043100010001A780F218A43111C021C0A431A70DC
:104320007B1D1B7801221340DAB2394BD0011A7879
:104330007F210A40111C021C0A431A703B681B0AA9
:104340001A1C7F231340DAB2314B7F210A40100040
:104350001A787F218A43111C021C0A431A70182301
:10436000FB181B7801221340DAB22A4B01210A40C4
:1043700010001A7801218A43111C021C0A431A708A
:104380003B681A1C7F231340DAB2224B90181A782C
:1043900001210A40111C021C0A431A701E4B0522FF
:1043A0001A701A4B1A781C4B5A701B4A1B4802236E
:1043B0003021FEF7CDFE031E01D0FF2322E0164B75
:1043C00006221A70124B1A78134B5A70124A13486D
:1043D00002233021FEF7BCFE031E01D0FF2311E0B3
:1043E0000D4B07221A700B4B1A780B4B5A700A4A66
:1043F0000A4802233021FEF7ABFE031E01D0FF2343
:1044000000E000231800BD4603B090BDA836002090
:10441000AC360020B0360020F43600209C3100205D
:1044200080B582B000AF0200FB1D1A70FB1D1B7827
:1044300001221340DAB20F4BD0011A787F210A40D3
:10444000111C021C0A431A700B4B17221A70094BDD
:104450001A78094B5A70084A084802233021FEF79F
:1044600077FE031E01D0FF2300E000231800BD46A5
:1044700002B080BDF0360020F43600209C310020D0
:1044800080B582B000AF0200FB1D1A70FB1D1B78C7
:1044900007221340DAB2104B07210A4010001A78A5
:1044A00007218A43111C021C0A431A700B4B162267
:1044B0001A70094B1A78094B5A70084A08480223A7
:1044C0003021FEF745FE031E01D0FF2300E000234C
:1044D0001800BD4602B080BDEC360020F436002046
:1044E0009C31002080B582B000AF0200FB1D1A7025
:1044F000FB1D1B7801221340DAB2184B01210A4040
:10450000D0001A7808218A43111C021C0A431A7031
:10451000FB1D1B7801221340DAB2104B01210A4027
:1045200090001A7804218A43111C021C0A431A7055
:104530000B4B0A221A70094B1A78094B5A70084A19
:10454000084802233021FEF703FE031E01D0FF239B
:1045500000E000231800BD4602B080BDF036002008
:10456000F43600209C31002080B582B000AF0200FC
:10457000FB1D1A70BB1D0A1C1A70FB1D1B78032241
:104580001340DAB2184B03210A4010011A78302187
:104590008A43111C021C0A431A70BB1D1B780F2290
:1045A0001340DAB2104B0F210A4010001A780F2185
:1045B0008A43111C021C0A431A700C4B0C221A70FD
:1045C000094B1A78094B5A70084A094802233021CE
:1045D000FEF7BEFD031E01D0FF2300E000231800FC
:1045E000BD4602B080BDC046C4360020F43600206F
:1045F0009C310020B0B582B000AF05000C00100067
:104600001900FB1D2A1C1A70BB1D221C1A707B1D71
:10461000021C1A703B1D0A1C1A70FB1D1B78002B14
:1046200015D13B1D1B7819000020FFF79DFF031ECD
:1046300001D0FF233EE01823FB181B781A0000214D
:104640000120FFF7E3FD031E1DD0FF2332E0FB1D19
:104650001B78012B17D13B1D1A787B1D1B7811008D
:104660001800FFF781FF031E01D0FF2322E018236B
:10467000FB181B781A0000210020FFF7C7FD031E5E
:1046800001D0FF2316E02023FB181A781C23FB1807
:104690001978BB1D1B78180000F05AF8031E01D0D2
:1046A000FF2307E00120FFF71DFF031E01D0FF23BA
:1046B00000E000231800BD4602B0B0BD90B587B041
:1046C00004AF040008001100FB1D221C1A70BB1D62
:1046D000021C1A707B1D0A1C1A700120FFF7A0FE35
:1046E000031E01D0FF232EE0C023DB010022009235
:1046F000002200210120FFF7E3FD031E01D0FF236C
:1047000021E0FFF725FD031E01D0FF231BE0FB1D69
:104710001A787B1D1B780293BB1D1B780193012324
:1047200000931300002202210020FFF763FF031E05
:1047300001D0FF2307E00020FFF7A2FE031E01D0F7
:10474000FF2300E000231800BD4603B090BD000029
:1047500090B583B000AF040008001100FB1D221CBF
:104760001A70BB1D021C1A707B1D0A1C1A70FB1DDF
:104770001B78002B20D1BB1D1B783F221340DAB2DF
:10478000454B3F210A4010001A783F218A43111CF3
:10479000021C0A431A70414B11221A703E4B1A78C0
:1047A0003E4B5A703D4A3E4802233021FEF7D0FC72
:1047B000031E6CD0FF236BE0FB1D1B78012B20D167
:1047C000BB1D1B783F221340DAB2364B3F210A4013
:1047D00010001A783F218A43111C021C0A431A70E8
:1047E0002E4B10221A702F4B1A782C4B5A702B4AD2
:1047F0002B4802233021FEF7ABFC031E47D0FF23DA
:1048000046E0FB1D1B78022B41D1BB1D1B783F22CC
:104810001340DAB2234B3F210A4010001A783F219F
:104820008A43111C021C0A431A70BB1D1B783F22CD
:104830001340DAB2184B3F210A4010001A783F218A
:104840008A43111C021C0A431A70144B10221A705E
:10485000144B1A78114B5A70104A11480223302118
:10486000FEF776FC031E01D0FF2311E00B4B112253
:104870001A70094B1A78094B5A70084A08480223E3
:104880003021FEF765FC031E01D0FF2300E000236A
:104890001800BD4603B090BDD4360020F436002089
:1048A0009C310020D836002080B582B000AF0200D5
:1048B000FB1D1A70FB1D1B78012B2BD1304B1A7876
:1048C00040210A431A702F4B1A7840210A431A706C
:1048D0002D4B10221A702A4B1A782B4B5A702A4AE9
:1048E0002A4802233021FEF733FC031E01D0FF23A8
:1048F00041E0254B11221A70224B1A78224B5A7034
:10490000214A224802233021FEF722FC031E31D027
:10491000FF2330E0FB1D1B78002B2BD1184B1A789E
:1049200040218A431A70174B1A7840218A431A7023
:10493000154B10221A70124B1A78134B5A70124AE8
:10494000124802233021FEF703FC031E01D0FF238F
:1049500011E00D4B11221A700A4B1A780A4B5A704B
:10496000094A0A4802233021FEF7F2FB031E01D058
:10497000FF2300E000231800BD4602B080BDC04602
:10498000D8360020D4360020F43600209C31002098
:1049900080B500AFC046BD4680BD80B582B000AFD7
:1049A000EFF305837B607B685A1E9341DBB21800EE
:1049B000BD4602B080BD000080B584B000AF786015
:1049C00039600023BB607B68002B01D1802336E077
:1049D0000023FB603B68013303D101235B42FB6092
:1049E00009E03B68002B06D03B68FB60FB68002BAE
:1049F00001D10123FB60FFF7D0FF031E13D0082372
:104A0000FA187B680021180000F05CFB0300012B02
:104A100001D0FF2313E0BB68002B0FD00A4B80228C
:104A200052051A600AE0FA687B681100180000F06D
:104A30008DFA0300012B01D0FF2300E000231800B2
:104A4000BD4604B080BDC04604ED00E080B584B032
:104A500000AF78600023FB600023BB60FFF79DFF81
:104A6000031E13D00823FA187B681100180000F009
:104A700022FA0300012B01D0FF2313E0BB68002BB7
:104A80000FD00A4B802252051A600AE07868002392
:104A90000022002100F07AF90300012B01D0FF234E
:104AA000FB60FB681800BD4604B080BD04ED00E06B
:104AB00080B500AF00F05AFF0300012B01D000F0D9
:104AC0004BF9C046BD4680BD80B586B000AFF860EA
:104AD000B9607A6000237B6100233B617B68002220
:104AE0001A6042E0FB680133FB60FB681B785BB235
:104AF000002B08D0FB681B785BB2202BF2D102E0C0
:104B0000FB680133FB60FB681B785BB2002B04D0B1
:104B1000FB681B785BB2202BF2D0FB681B785BB282
:104B2000002B27D07B6901337B617A69BB689A428D
:104B30001BD1FB683B6107E07B681B685A1C7B68E4
:104B40001A60FB680133FB60FB681B785BB2002BCB
:104B500004D0FB681B785BB2202BEDD17B681B680F
:104B6000002B09D100233B6106E07A69BB689A42B9
:104B7000BBD302E0C04600E0C0463B691800BD461A
:104B800006B080BD80B584B000AF786039607B68C6
:104B90005B68FB603B68FA685A60FB689A683B6830
:104BA0009A60FB689B683A685A60FB683A689A604A
:104BB0003B687A681A617B681B685A1C7B681A60BC
:104BC000C046BD4604B080BD80B584B000AF7860FB
:104BD00039603B681B68BB60BB68013303D17B68ED
:104BE0001B69FB600CE07B680833FB6002E0FB683C
:104BF0005B68FB60FB685B681B68BA689A42F6D228
:104C0000FB685A683B685A603B685B683A689A6020
:104C10003B68FA689A60FB683A685A603B687A6851
:104C20001A617B681B685A1C7B681A60C046BD46C7
:104C300004B080BD80B584B000AF78607B681B692C
:104C4000FB607B685B687A6892689A607B689B68A7
:104C50007A6852685A60FB685B687A689A4203D146
:104C60007B689A68FB685A607B6800221A61FB685F
:104C70001B685A1EFB681A60FB681B681800BD465B
:104C800004B080BD80B500AFC046BD4680BD000009
:104C900080B500AF054B802252051A60BFF34F8FDD
:104CA000BFF36F8FC046BD4680BDC04604ED00E037
:104CB00080B500AF72B6064B1B685A1C044B1A60D5
:104CC000BFF34F8FBFF36F8FC046BD4680BDC04658
:104CD0006C00002080B500AF064B1B685A1E054BC8
:104CE0001A60044B1B68002B00D162B6C046BD465B
:104CF00080BDC0466C000020EFF3108072B6704794
:104D0000C046180080F310887047C04600000000BD
:104D1000EFF309800E4B1A6820381060F0C044464B
:104D20004D4656465F46F0C008B572B600F098FC96
:104D300062B60CBC116808681030F0C8A046A946DD
:104D4000B246BB4680F309882038F0C81847C046F1
:104D5000F8360020C046C04680B582B000AFFFF7ED
:104D6000CBFF03007B6000F0D3FB031E03D0064B98
:104D7000802252051A607B681800FFF7C3FFC04607
:104D8000BD4602B080BDC04604ED00E080B58AB0EB
:104D900000AFF860B9607A603B6000237B62FB681B
:104DA0003B62FFF785FF3B6A9A6B3B6ADB6B9A427B
:104DB00002D33B68022B1ED13A68B9683B6A1800DF
:104DC00000F0E6F90300FB613B6A5B6A002B09D047
:104DD0003B6A2433180000F0EFFC031E07D0FFF7F6
:104DE00057FF04E0FB69002B01D0FFF751FFFFF7ED
:104DF00071FF01235BE07B68002B03D1FFF76AFFA3
:104E0000002354E07B6A002B06D11423FB18180002
:104E100000F02AFD01237B62FFF75CFF00F0D6FA69
:104E2000FFF746FF3B6A44229B5C5BB2013303D130
:104E30003B6A4422002199543B6A45229B5C5BB249
:104E4000013303D13B6A452200219954FFF742FF09
:104E50003A1D1423FB181100180000F019FD031E61
:104E60001ED13B6A180000F098FA031E11D03B6A6D
:104E700010337A681100180000F084FC3B6A1800B7
:104E800000F017FA00F0AEFA031E8AD1FFF700FF18
:104E900087E73B6A180000F00CFA00F0A3FA80E7FD
:104EA0003B6A180000F005FA00F09CFA0023180095
:104EB000BD460AB080BD80B588B000AF786039606B
:104EC0007B68BB61FFF718FF03007B61BB699B6BCD
:104ED0003B61BB69DB6B3A699A422CD20F203B18CD
:104EE000BA694521525C1A703B695A1CBB699A63C6
:104EF0003B181B785BB2013311D1BB695B6A002B95
:104F000016D0BB692433180000F056FC031E0FD0E6
:104F10003B68002B0CD03B6801221A6008E00F238D
:104F2000FB181B780133DBB259B2BB694522995497
:104F30000123FB6101E00023FB617B691800FFF79F
:104F4000E1FEFB691800BD4608B080BD80B58AB09F
:104F500000AF7860396000237B627B68FB610023CF
:104F60003B62FFF7A5FEFB699B6BBB61BB69002B36
:104F70001DD0BB695A1EFB699A63FB691B68002B35
:104F800004D100F023FE0200FB699A60FB691B69F3
:104F9000002B08D0FB691033180000F00DFC031E35
:104FA00001D0FFF775FEFFF795FE012386E03B6811
:104FB000002B03D1FFF78EFE00237FE07B6A002BDE
:104FC00006D10C23FB18180000F04EFC01237B6275
:104FD000FFF780FE00F0FAF9FFF76AFEFB69442252
:104FE0009B5C5BB2013303D1FB69442200219954DD
:104FF000FB6945229B5C5BB2013303D1FB6945220F
:1050000000219954FFF766FE3A000C23FB181100AB
:10501000180000F03DFC031E2ED1FB69180000F0C3
:10502000A6F9031E21D0FB691B68002B0AD1FFF7EC
:105030003FFEFB699B68180000F0B4FC03003B6274
:10504000FFF748FEFB6924333A681100180000F0AE
:1050500099FBFB69180000F02CF900F0C3F9031E5E
:1050600000D07EE7FFF714FE7BE7FB69180000F035
:1050700020F900F0B7F974E7FB69180000F019F99E
:1050800000F0B0F9FB69180000F071F9031E00D1BF
:1050900067E73B6A002B10D0FFF70AFEFB69180098
:1050A00000F060F803007B61FB699B687A6911007E
:1050B000180000F02BFDFFF70DFE00231800BD4681
:1050C0000AB080BD90B58BB000AFF860B9607A606F
:1050D000FB683B62FFF710FE0300FB613B6A9B6BC2
:1050E000BB61BB69002B32D017243B193A6A4421BB
:1050F000525C1A70BA683B6A1100180000F0B3F8ED
:10510000BB695A1E3B6A9A633B191B785BB2013339
:1051100011D13B6A1B69002B16D03B6A1033180073
:1051200000F04AFB031E0FD07B68002B0CD07B687D
:1051300001221A6008E01723FB181B780133DBB249
:1051400059B23B6A4422995401237B6201E0002357
:105150007B62FB691800FFF7D5FD7B6A1800BD462E
:105160000BB090BD80B584B000AF78607B685B6A9F
:10517000002B06D07B681B6B1B680722D31AFB60D1
:1051800001E00023FB60FB681800BD4604B080BD51
:1051900080B586B000AFF860B9607A6000237B61AB
:1051A000FB689B6B3B61FB681B6C002B0ED1FB68A3
:1051B0001B68002B4ED1FB689B68180000F05AFC5E
:1051C00003007B61FB6800229A6043E07B68002B50
:1051D00019D1FB685868FB681A6CBB68190006F0A7
:1051E00053F9FB685A68FB681B6CD218FB685A605D
:1051F000FB685A68FB689B689A422BD3FB681A6865
:10520000FB685A6026E0FB68D868FB681A6CBB68CC
:10521000190006F039F9FB68DA68FB681B6C5B4221
:10522000D218FB68DA60FB68DA68FB681B689A4290
:1052300007D2FB689A68FB681B6C5B42D218FB685C
:10524000DA607B68022B05D13B69002B02D03B69F9
:10525000013B3B613B695A1CFB689A637B69180000
:10526000BD4606B080BD80B582B000AF78603960C1
:105270007B681B6C002B18D07B68DA687B681B6C22
:10528000D2187B68DA607B68DA687B689B689A4230
:1052900003D37B681A687B68DA607B68D9687B68AF
:1052A0001A6C3B68180006F0EFF8C046BD4602B025
:1052B00080BD80B584B000AF7860FFF7F9FC0F23A4
:1052C000FB187A684521525C1A7013E07B685B6AB0
:1052D000002B16D07B682433180000F06DFA031EF3
:1052E00001D000F01BFB0F217B181B78013BDAB2C9
:1052F0007B181A700F23FB181B785BB2002BE5DCC0
:1053000000E0C0467B684522FF219954FFF7E2FC8C
:10531000FFF7CEFC0E23FB187A684421525C1A700A
:1053200013E07B681B69002B16D07B6810331800D4
:1053300000F042FA031E01D000F0F0FA0E217B18B3
:105340001B78013BDAB27B181A700E23FB181B780E
:105350005BB2002BE5DC00E0C0467B684422FF2105
:105360009954FFF7B7FCC046BD4604B080BD80B578
:1053700084B000AF7860FFF79BFC7B689B6B002BD1
:1053800002D10123FB6001E00023FB60FFF7A2FCD8
:10539000FB681800BD4604B080BD80B584B000AF86
:1053A0007860FFF785FC7B689A6B7B68DB6B9A42C1
:1053B00002D10123FB6001E00023FB60FFF78AFCC0
:1053C000FB681800BD4604B080BD000080B500AF8A
:1053D000034B1B685A1C024B1A60C046BD4680BD79
:1053E0002038002080B584B000AF0023FB6000238C
:1053F000BB60FFF75DFC364B1B685A1E344B1A60CE
:10540000334B1B68002B5BD1324B1B68002B57D0F2
:105410002FE0314BDB68DB68FB60FB68183318005A
:10542000FFF708FCFB6804331800FFF703FCFB6878
:10543000DA6A2A4B1B689A4203D9FB68DA6A274B5F
:105440001A60FB68DA6A13009B009B189B00244AD1
:105450009A18FB68043319001000FFF793FBFB68F0
:10546000DA6A204B1B68DB6A9A4202D31E4B012288
:105470001A60194B1B68002BCBD1FB68002B01D0A5
:1054800000F056FA194B1B687B607B68002B0FD02D
:1054900000F03EF8031E02D0134B01221A607B6815
:1054A000013B7B607B68002BF2D1104B00221A601D
:1054B0000D4B1B68002B03D00123BB60FFF7E8FBFB
:1054C000FFF708FCBB681800BD4604B080BDC046AD
:1054D00020380020F8370020B8370020003800209E
:1054E000FC360020F83600200C3800200838002058
:1054F00080B582B000AF00237B60044B1B683B602B
:105500003B681800BD4602B080BDC046FC37002095
:1055100080B586B000AF00237B61464B1B68002B33
:1055200000D07DE0444B1B6801333B61424B3A693C
:105530001A603B69002B10D1404B1B68FB60404B4D
:105540001A683E4B1A603E4BFA681A603D4B1B6866
:105550005A1C3C4B1A6000F0EBF93B4B1B683A6954
:105560009A4249D3354B1B681B68002B04D1364B3C
:10557000012252421A603FE0304B1B68DB68DB6857
:10558000BB60BB685B687B603A697B689A4203D208
:105590002D4B7A681A602FE0BB6804331800FFF7C0
:1055A00049FBBB689B6A002B04D0BB68183318000A
:1055B000FFF740FBBB68DA6A244B1B689A4203D9A9
:1055C000BB68DA6A214B1A60BB68DA6A13009B0079
:1055D0009B189B001E4A9A18BB68043319001000E0
:1055E000FFF7D0FABB68DA6A1A4B1B68DB6A9A428B
:1055F000B8D301237B61B5E7164B1B68DA6A1449FF
:1056000013009B009B189B005B58012B01D90123C1
:105610007B61114B1B68002B07D001237B6104E0E9
:105620000E4B1B685A1C0D4B1A607B691800BD4657
:1056300006B080BD20380020FC370020B0370020A5
:10564000B43700201038002018380020003800201F
:10565000FC360020F83600200C38002008380020E6
:1056600080B584B000AF3F4B1B68002B03D03E4B8E
:1056700001221A6071E03C4B00221A60FCF71CFE0C
:1056800002003A4B1A60394B1A68394B1B689A4230
:1056900009D9384B1B68596D344A1068344A12686E
:1056A000821A8A185A65314B1A68314B1A60314B8D
:1056B0001B681B6BBB60304B7B60BB681B687A68E8
:1056C0009A4211D1BB6804331B687A689A420BD1A5
:1056D000BB6808331B687A689A4205D1BB680C33F3
:1056E0001B687A689A4208D0224B1A68214B1B68C3
:1056F000343319001000FDF729FF204B1B68FB60B5
:1057000002E0FB68013BFB601D49FA6813009B0047
:105710009B189B005B58002BF3D0FA6813009B008A
:105720009B189B00164A9B183B603B685B685A6855
:105730003B685A603B685A683B6808339A4204D118
:105740003B685B685A683B685A603B685B68DA682C
:10575000084B1A60094BFA681A60C046BD4604B08F
:1057600080BDC046203800200C380020283800209A
:1057700024380020F8360020A5A5A5A50038002073
:10578000FC36002080B582B000AF78603960094BEC
:105790001B6818331A007B6811001800FFF714FA11
:1057A0003B680121180000F023FAC046BD4602B054
:1057B00080BDC046F836002080B584B000AF786068
:1057C0007B68DB68DB68BB60BB6818331800FFF7D9
:1057D00031FA1F4B1B68002B1DD1BB680433180026
:1057E000FFF728FABB68DA6A1A4B1B689A4203D99A
:1057F000BB68DA6A174B1A60BB68DA6A13009B0051
:105800009B189B00144A9A18BB68043319001000B7
:10581000FFF7B8F907E0BB6818331A000F4B110007
:105820001800FFF7AFF9BB68DA6A0D4B1B68DB6A3B
:105830009A4205D90123FB600A4B01221A6001E05C
:105840000023FB60FB681800BD4604B080BDC04665
:105850002038002000380020FC360020B837002017
:10586000F83600200C38002080B582B000AF786098
:10587000054B1A687B681A60044B1A687B685A608B
:10588000C046BD4602B080BD10380020FC37002065
:1058900080B586B000AF78603960FFF709FA1D4B1C
:1058A0001B683B617B685B683A69D31AFB603B68A5
:1058B0001B68013302D100237B6124E07B681A68F6
:1058C000154B1B689A4207D07B685B683A699A421D
:1058D00002D301237B6116E03B681B68FA689A4299
:1058E0000CD23B681A68FB68D21A3B681A607B6866
:1058F0001800FFF7B9FF00237B6104E03B6800223A
:105900001A6001237B61FFF7E5F97B691800BD464A
:1059100006B080BDFC3700201038002080B500AFF5
:10592000024B01221A60C046BD4680BD0C380020E3
:1059300080B582B000AF0B4B1B681B68002B04D1F5
:10594000094B012252421A6008E0064B1B68DB68D3
:10595000DB687B607B685A68034B1A60C046BD46B3
:1059600002B080BDB03700201838002080B582B06A
:1059700000AF0A4B1B68002B02D101237B6008E0BB
:10598000074B1B68002B02D102237B6001E0002340
:105990007B607B681800BD4602B080BD04380020E3
:1059A0002038002080B584B000AF78607B68BB6091
:1059B0000023FB607B68002B51D0BB68DA6A2A4B5E
:1059C0001B68DB6A9A4241D2BB689B69002B06DBED
:1059D000254B1B68DB6A0722D21ABB689A61BB6839
:1059E0005969BB68DA6A13009B009B189B001F4A29
:1059F0009B18994222D1BB6804331800FFF71AF9AB
:105A0000194B1B68DA6ABB68DA62BB68DA6A184B42
:105A10001B689A4203D9BB68DA6A154B1A60BB68E7
:105A2000DA6A13009B009B189B00104A9A18BB6807
:105A3000043319001000FFF7A5F804E00A4B1B68B7
:105A4000DA6ABB68DA620123FB6008E0BB68DA6CE3
:105A5000054B1B68DB6A9A4201D20123FB60FB689D
:105A60001800BD4604B080BDF8360020FC3600208A
:105A70000038002080B584B000AF78607B68BB60E0
:105A80000023FB607B68002B37D0BB681B6D5A1E60
:105A9000BB681A65BB68DA6ABB68DB6C9A422CD0BB
:105AA000BB681B6D002B28D1BB6804331800FFF7BF
:105AB000C1F8BB68DA6CBB68DA62BB68DB6A0722D4
:105AC000D21ABB689A61BB68DA6A0E4B1B689A42AD
:105AD00003D9BB68DA6A0B4B1A60BB68DA6A130039
